{
  "_format": "hh-sol-artifact-1",
  "contractName": "OrderBooks",
  "sourceName": "contracts/OrderBooks.sol",
  "abi": [
    {
      "inputs": [
        {
          "internalType": "address",
          "name": "_myTokenAddress",
          "type": "address"
        },
        {
          "internalType": "address",
          "name": "_tokenAAddress",
          "type": "address"
        },
        {
          "internalType": "address",
          "name": "_tokenBAddress",
          "type": "address"
        }
      ],
      "stateMutability": "nonpayable",
      "type": "constructor"
    },
    {
      "anonymous": false,
      "inputs": [
        {
          "indexed": false,
          "internalType": "string",
          "name": "message",
          "type": "string"
        },
        {
          "indexed": false,
          "internalType": "uint256",
          "name": "orderId",
          "type": "uint256"
        },
        {
          "indexed": false,
          "internalType": "address",
          "name": "trader",
          "type": "address"
        },
        {
          "indexed": false,
          "internalType": "uint256",
          "name": "amount1",
          "type": "uint256"
        },
        {
          "indexed": false,
          "internalType": "address",
          "name": "trader2",
          "type": "address"
        },
        {
          "indexed": false,
          "internalType": "uint256",
          "name": "amount2",
          "type": "uint256"
        }
      ],
      "name": "Debug",
      "type": "event"
    },
    {
      "anonymous": false,
      "inputs": [
        {
          "indexed": false,
          "internalType": "uint256",
          "name": "id",
          "type": "uint256"
        },
        {
          "indexed": true,
          "internalType": "address",
          "name": "trader",
          "type": "address"
        },
        {
          "indexed": false,
          "internalType": "enum OrderBooks.OrderType",
          "name": "orderType",
          "type": "uint8"
        }
      ],
      "name": "OrderCanceled",
      "type": "event"
    },
    {
      "anonymous": false,
      "inputs": [
        {
          "indexed": true,
          "internalType": "uint256",
          "name": "orderId",
          "type": "uint256"
        },
        {
          "indexed": true,
          "internalType": "address",
          "name": "trader",
          "type": "address"
        },
        {
          "indexed": false,
          "internalType": "enum OrderBooks.OrderType",
          "name": "orderType",
          "type": "uint8"
        },
        {
          "indexed": false,
          "internalType": "address",
          "name": "inputToken",
          "type": "address"
        },
        {
          "indexed": false,
          "internalType": "uint256",
          "name": "inputAmount",
          "type": "uint256"
        },
        {
          "indexed": false,
          "internalType": "address",
          "name": "outputToken",
          "type": "address"
        },
        {
          "indexed": false,
          "internalType": "uint256",
          "name": "outputAmount",
          "type": "uint256"
        }
      ],
      "name": "OrderCreated",
      "type": "event"
    },
    {
      "anonymous": false,
      "inputs": [
        {
          "indexed": true,
          "internalType": "uint256",
          "name": "orderId",
          "type": "uint256"
        },
        {
          "indexed": true,
          "internalType": "address",
          "name": "trader",
          "type": "address"
        },
        {
          "indexed": false,
          "internalType": "enum OrderBooks.OrderType",
          "name": "orderType",
          "type": "uint8"
        },
        {
          "indexed": false,
          "internalType": "address",
          "name": "inputToken",
          "type": "address"
        },
        {
          "indexed": false,
          "internalType": "uint256",
          "name": "inputAmount",
          "type": "uint256"
        },
        {
          "indexed": false,
          "internalType": "address",
          "name": "outputToken",
          "type": "address"
        },
        {
          "indexed": false,
          "internalType": "uint256",
          "name": "outputAmount",
          "type": "uint256"
        }
      ],
      "name": "OrderFulfilled",
      "type": "event"
    },
    {
      "anonymous": false,
      "inputs": [
        {
          "indexed": true,
          "internalType": "uint256",
          "name": "orderId",
          "type": "uint256"
        },
        {
          "indexed": true,
          "internalType": "address",
          "name": "trader",
          "type": "address"
        },
        {
          "indexed": false,
          "internalType": "enum OrderBooks.OrderType",
          "name": "orderType",
          "type": "uint8"
        },
        {
          "indexed": false,
          "internalType": "address",
          "name": "inputToken",
          "type": "address"
        },
        {
          "indexed": false,
          "internalType": "uint256",
          "name": "inputAmount",
          "type": "uint256"
        },
        {
          "indexed": false,
          "internalType": "address",
          "name": "outputToken",
          "type": "address"
        },
        {
          "indexed": false,
          "internalType": "uint256",
          "name": "outputAmount",
          "type": "uint256"
        }
      ],
      "name": "OrderPlaced",
      "type": "event"
    },
    {
      "inputs": [
        {
          "internalType": "address",
          "name": "",
          "type": "address"
        },
        {
          "internalType": "address",
          "name": "",
          "type": "address"
        },
        {
          "internalType": "uint256",
          "name": "",
          "type": "uint256"
        }
      ],
      "name": "buyOrders",
      "outputs": [
        {
          "internalType": "uint256",
          "name": "id",
          "type": "uint256"
        },
        {
          "internalType": "address",
          "name": "trader",
          "type": "address"
        },
        {
          "internalType": "enum OrderBooks.OrderType",
          "name": "orderType",
          "type": "uint8"
        },
        {
          "internalType": "address",
          "name": "inputToken",
          "type": "address"
        },
        {
          "internalType": "uint256",
          "name": "inputAmount",
          "type": "uint256"
        },
        {
          "internalType": "address",
          "name": "outputToken",
          "type": "address"
        },
        {
          "internalType": "uint256",
          "name": "outputAmount",
          "type": "uint256"
        },
        {
          "internalType": "bool",
          "name": "isFulfilled",
          "type": "bool"
        },
        {
          "internalType": "bool",
          "name": "isCanceled",
          "type": "bool"
        }
      ],
      "stateMutability": "view",
      "type": "function"
    },
    {
      "inputs": [
        {
          "internalType": "uint256",
          "name": "orderId",
          "type": "uint256"
        },
        {
          "internalType": "address",
          "name": "inputToken",
          "type": "address"
        },
        {
          "internalType": "address",
          "name": "outputToken",
          "type": "address"
        }
      ],
      "name": "cancelBuyOrder",
      "outputs": [],
      "stateMutability": "nonpayable",
      "type": "function"
    },
    {
      "inputs": [
        {
          "internalType": "uint256",
          "name": "orderId",
          "type": "uint256"
        },
        {
          "internalType": "address",
          "name": "inputToken",
          "type": "address"
        },
        {
          "internalType": "address",
          "name": "outputToken",
          "type": "address"
        }
      ],
      "name": "cancelSellOrder",
      "outputs": [],
      "stateMutability": "nonpayable",
      "type": "function"
    },
    {
      "inputs": [
        {
          "internalType": "address",
          "name": "inputToken",
          "type": "address"
        },
        {
          "internalType": "uint256",
          "name": "inputAmount",
          "type": "uint256"
        },
        {
          "internalType": "address",
          "name": "outputToken",
          "type": "address"
        },
        {
          "internalType": "uint256",
          "name": "outputAmount",
          "type": "uint256"
        }
      ],
      "name": "createAndMatchBuyOrder",
      "outputs": [
        {
          "components": [
            {
              "internalType": "uint256",
              "name": "id",
              "type": "uint256"
            },
            {
              "internalType": "address",
              "name": "trader",
              "type": "address"
            },
            {
              "internalType": "enum OrderBooks.OrderType",
              "name": "orderType",
              "type": "uint8"
            },
            {
              "internalType": "address",
              "name": "inputToken",
              "type": "address"
            },
            {
              "internalType": "uint256",
              "name": "inputAmount",
              "type": "uint256"
            },
            {
              "internalType": "address",
              "name": "outputToken",
              "type": "address"
            },
            {
              "internalType": "uint256",
              "name": "outputAmount",
              "type": "uint256"
            },
            {
              "internalType": "bool",
              "name": "isFulfilled",
              "type": "bool"
            },
            {
              "internalType": "bool",
              "name": "isCanceled",
              "type": "bool"
            }
          ],
          "internalType": "struct OrderBooks.Order",
          "name": "",
          "type": "tuple"
        }
      ],
      "stateMutability": "nonpayable",
      "type": "function"
    },
    {
      "inputs": [
        {
          "internalType": "address",
          "name": "inputToken",
          "type": "address"
        },
        {
          "internalType": "uint256",
          "name": "inputAmount",
          "type": "uint256"
        },
        {
          "internalType": "address",
          "name": "outputToken",
          "type": "address"
        },
        {
          "internalType": "uint256",
          "name": "outputAmount",
          "type": "uint256"
        }
      ],
      "name": "createAndMatchSellOrder",
      "outputs": [
        {
          "components": [
            {
              "internalType": "uint256",
              "name": "id",
              "type": "uint256"
            },
            {
              "internalType": "address",
              "name": "trader",
              "type": "address"
            },
            {
              "internalType": "enum OrderBooks.OrderType",
              "name": "orderType",
              "type": "uint8"
            },
            {
              "internalType": "address",
              "name": "inputToken",
              "type": "address"
            },
            {
              "internalType": "uint256",
              "name": "inputAmount",
              "type": "uint256"
            },
            {
              "internalType": "address",
              "name": "outputToken",
              "type": "address"
            },
            {
              "internalType": "uint256",
              "name": "outputAmount",
              "type": "uint256"
            },
            {
              "internalType": "bool",
              "name": "isFulfilled",
              "type": "bool"
            },
            {
              "internalType": "bool",
              "name": "isCanceled",
              "type": "bool"
            }
          ],
          "internalType": "struct OrderBooks.Order",
          "name": "",
          "type": "tuple"
        }
      ],
      "stateMutability": "nonpayable",
      "type": "function"
    },
    {
      "inputs": [
        {
          "internalType": "address",
          "name": "inputToken",
          "type": "address"
        },
        {
          "internalType": "uint256",
          "name": "inputAmount",
          "type": "uint256"
        },
        {
          "internalType": "address",
          "name": "outputToken",
          "type": "address"
        }
      ],
      "name": "createMarketBuyOrder",
      "outputs": [
        {
          "components": [
            {
              "internalType": "uint256",
              "name": "id",
              "type": "uint256"
            },
            {
              "internalType": "address",
              "name": "trader",
              "type": "address"
            },
            {
              "internalType": "enum OrderBooks.OrderType",
              "name": "orderType",
              "type": "uint8"
            },
            {
              "internalType": "address",
              "name": "inputToken",
              "type": "address"
            },
            {
              "internalType": "uint256",
              "name": "inputAmount",
              "type": "uint256"
            },
            {
              "internalType": "address",
              "name": "outputToken",
              "type": "address"
            },
            {
              "internalType": "uint256",
              "name": "outputAmount",
              "type": "uint256"
            },
            {
              "internalType": "bool",
              "name": "isFulfilled",
              "type": "bool"
            },
            {
              "internalType": "bool",
              "name": "isCanceled",
              "type": "bool"
            }
          ],
          "internalType": "struct OrderBooks.Order",
          "name": "",
          "type": "tuple"
        }
      ],
      "stateMutability": "nonpayable",
      "type": "function"
    },
    {
      "inputs": [
        {
          "internalType": "address",
          "name": "inputToken",
          "type": "address"
        },
        {
          "internalType": "uint256",
          "name": "inputAmount",
          "type": "uint256"
        },
        {
          "internalType": "address",
          "name": "outputToken",
          "type": "address"
        }
      ],
      "name": "createMarketSellOrder",
      "outputs": [
        {
          "components": [
            {
              "internalType": "uint256",
              "name": "id",
              "type": "uint256"
            },
            {
              "internalType": "address",
              "name": "trader",
              "type": "address"
            },
            {
              "internalType": "enum OrderBooks.OrderType",
              "name": "orderType",
              "type": "uint8"
            },
            {
              "internalType": "address",
              "name": "inputToken",
              "type": "address"
            },
            {
              "internalType": "uint256",
              "name": "inputAmount",
              "type": "uint256"
            },
            {
              "internalType": "address",
              "name": "outputToken",
              "type": "address"
            },
            {
              "internalType": "uint256",
              "name": "outputAmount",
              "type": "uint256"
            },
            {
              "internalType": "bool",
              "name": "isFulfilled",
              "type": "bool"
            },
            {
              "internalType": "bool",
              "name": "isCanceled",
              "type": "bool"
            }
          ],
          "internalType": "struct OrderBooks.Order",
          "name": "",
          "type": "tuple"
        }
      ],
      "stateMutability": "nonpayable",
      "type": "function"
    },
    {
      "inputs": [
        {
          "internalType": "address",
          "name": "inputToken",
          "type": "address"
        },
        {
          "internalType": "address",
          "name": "outputToken",
          "type": "address"
        }
      ],
      "name": "getBuyOrders",
      "outputs": [
        {
          "components": [
            {
              "internalType": "uint256",
              "name": "id",
              "type": "uint256"
            },
            {
              "internalType": "address",
              "name": "trader",
              "type": "address"
            },
            {
              "internalType": "enum OrderBooks.OrderType",
              "name": "orderType",
              "type": "uint8"
            },
            {
              "internalType": "address",
              "name": "inputToken",
              "type": "address"
            },
            {
              "internalType": "uint256",
              "name": "inputAmount",
              "type": "uint256"
            },
            {
              "internalType": "address",
              "name": "outputToken",
              "type": "address"
            },
            {
              "internalType": "uint256",
              "name": "outputAmount",
              "type": "uint256"
            },
            {
              "internalType": "bool",
              "name": "isFulfilled",
              "type": "bool"
            },
            {
              "internalType": "bool",
              "name": "isCanceled",
              "type": "bool"
            }
          ],
          "internalType": "struct OrderBooks.Order[]",
          "name": "",
          "type": "tuple[]"
        }
      ],
      "stateMutability": "view",
      "type": "function"
    },
    {
      "inputs": [
        {
          "internalType": "address",
          "name": "inputToken",
          "type": "address"
        },
        {
          "internalType": "address",
          "name": "outputToken",
          "type": "address"
        }
      ],
      "name": "getSellOrders",
      "outputs": [
        {
          "components": [
            {
              "internalType": "uint256",
              "name": "id",
              "type": "uint256"
            },
            {
              "internalType": "address",
              "name": "trader",
              "type": "address"
            },
            {
              "internalType": "enum OrderBooks.OrderType",
              "name": "orderType",
              "type": "uint8"
            },
            {
              "internalType": "address",
              "name": "inputToken",
              "type": "address"
            },
            {
              "internalType": "uint256",
              "name": "inputAmount",
              "type": "uint256"
            },
            {
              "internalType": "address",
              "name": "outputToken",
              "type": "address"
            },
            {
              "internalType": "uint256",
              "name": "outputAmount",
              "type": "uint256"
            },
            {
              "internalType": "bool",
              "name": "isFulfilled",
              "type": "bool"
            },
            {
              "internalType": "bool",
              "name": "isCanceled",
              "type": "bool"
            }
          ],
          "internalType": "struct OrderBooks.Order[]",
          "name": "",
          "type": "tuple[]"
        }
      ],
      "stateMutability": "view",
      "type": "function"
    },
    {
      "inputs": [],
      "name": "orderCounter",
      "outputs": [
        {
          "internalType": "uint256",
          "name": "",
          "type": "uint256"
        }
      ],
      "stateMutability": "view",
      "type": "function"
    },
    {
      "inputs": [
        {
          "internalType": "address",
          "name": "",
          "type": "address"
        },
        {
          "internalType": "address",
          "name": "",
          "type": "address"
        },
        {
          "internalType": "uint256",
          "name": "",
          "type": "uint256"
        }
      ],
      "name": "sellOrders",
      "outputs": [
        {
          "internalType": "uint256",
          "name": "id",
          "type": "uint256"
        },
        {
          "internalType": "address",
          "name": "trader",
          "type": "address"
        },
        {
          "internalType": "enum OrderBooks.OrderType",
          "name": "orderType",
          "type": "uint8"
        },
        {
          "internalType": "address",
          "name": "inputToken",
          "type": "address"
        },
        {
          "internalType": "uint256",
          "name": "inputAmount",
          "type": "uint256"
        },
        {
          "internalType": "address",
          "name": "outputToken",
          "type": "address"
        },
        {
          "internalType": "uint256",
          "name": "outputAmount",
          "type": "uint256"
        },
        {
          "internalType": "bool",
          "name": "isFulfilled",
          "type": "bool"
        },
        {
          "internalType": "bool",
          "name": "isCanceled",
          "type": "bool"
        }
      ],
      "stateMutability": "view",
      "type": "function"
    },
    {
      "inputs": [
        {
          "internalType": "uint256",
          "name": "",
          "type": "uint256"
        }
      ],
      "name": "tokens",
      "outputs": [
        {
          "internalType": "address",
          "name": "",
          "type": "address"
        }
      ],
      "stateMutability": "view",
      "type": "function"
    }
  ],
  "bytecode": "0x608060405234801561001057600080fd5b506040516161af3803806161af83398181016040528101906100329190610290565b826000806101000a81548173ffffffffffffffffffffffffffffffffffffffff021916908373ffffffffffffffffffffffffffffffffffffffff16021790555081600160006101000a81548173ffffffffffffffffffffffffffffffffffffffff021916908373ffffffffffffffffffffffffffffffffffffffff16021790555080600260006101000a81548173ffffffffffffffffffffffffffffffffffffffff021916908373ffffffffffffffffffffffffffffffffffffffff1602179055506003839080600181540180825580915050600190039060005260206000200160009091909190916101000a81548173ffffffffffffffffffffffffffffffffffffffff021916908373ffffffffffffffffffffffffffffffffffffffff1602179055506003829080600181540180825580915050600190039060005260206000200160009091909190916101000a81548173ffffffffffffffffffffffffffffffffffffffff021916908373ffffffffffffffffffffffffffffffffffffffff1602179055506003819080600181540180825580915050600190039060005260206000200160009091909190916101000a81548173ffffffffffffffffffffffffffffffffffffffff021916908373ffffffffffffffffffffffffffffffffffffffff16021790555060006006819055505050506102e3565b600080fd5b600073ffffffffffffffffffffffffffffffffffffffff82169050919050565b600061025d82610232565b9050919050565b61026d81610252565b811461027857600080fd5b50565b60008151905061028a81610264565b92915050565b6000806000606084860312156102a9576102a861022d565b5b60006102b78682870161027b565b93505060206102c88682870161027b565b92505060406102d98682870161027b565b9150509250925092565b615ebd806102f26000396000f3fe608060405234801561001057600080fd5b50600436106100b45760003560e01c80638a982dc1116100715780638a982dc1146101e15780638b4b48371461021157806392907e3814610241578063b789bf521461025d578063bb3eed681461027b578063f1b772b6146102b3576100b4565b8063148a9626146100b9578063219bad88146100e957806345f12267146101195780634f64b2be146101495780635dc572f914610179578063721d33ef146101a9575b600080fd5b6100d360048036038101906100ce9190615550565b6102cf565b6040516100e0919061570a565b60405180910390f35b61010360048036038101906100fe9190615726565b61145d565b604051610110919061570a565b60405180910390f35b610133600480360381019061012e919061578d565b612586565b6040516101409190615934565b60405180910390f35b610163600480360381019061015e9190615956565b6127f4565b6040516101709190615992565b60405180910390f35b610193600480360381019061018e919061578d565b612833565b6040516101a09190615934565b60405180910390f35b6101c360048036038101906101be91906159ad565b612aa1565b6040516101d899989796959493929190615a2d565b60405180910390f35b6101fb60048036038101906101f69190615550565b612ba0565b604051610208919061570a565b60405180910390f35b61022b60048036038101906102269190615726565b613d3f565b604051610238919061570a565b60405180910390f35b61025b60048036038101906102569190615aba565b614ec3565b005b6102656150dc565b6040516102729190615b0d565b60405180910390f35b610295600480360381019061029091906159ad565b6150e2565b6040516102aa99989796959493929190615a2d565b60405180910390f35b6102cd60048036038101906102c89190615aba565b6151e1565b005b6102d7615413565b600660008154809291906102ea90615b57565b9190505550600060405180610120016040528060065481526020013373ffffffffffffffffffffffffffffffffffffffff168152602001600180811115610334576103336155c1565b5b81526020018673ffffffffffffffffffffffffffffffffffffffff1681526020018581526020018473ffffffffffffffffffffffffffffffffffffffff168152602001600081526020016000151581526020016000151581525090506000849050600080600460008973ffffffffffffffffffffffffffffffffffffffff1673ffffffffffffffffffffffffffffffffffffffff16815260200190815260200160002060008773ffffffffffffffffffffffffffffffffffffffff1673ffffffffffffffffffffffffffffffffffffffff168152602001908152602001600020905060005b8180549050811015610a4857600082828154811061043a57610439615b9f565b5b906000526020600020906007020190508060060160009054906101000a900460ff168061047557508060060160019054906101000a900460ff165b156104805750610a3b565b60006104908683600301546153fa565b9050600082600301548360050154836104a99190615bce565b6104b39190615c3f565b9050600083600301549050600084600501549050888411610a35578d73ffffffffffffffffffffffffffffffffffffffff166323b872dd338760010160009054906101000a900473ffffffffffffffffffffffffffffffffffffffff16876040518463ffffffff1660e01b815260040161052f93929190615c70565b6020604051808303816000875af115801561054e573d6000803e3d6000fd5b505050506040513d601f19601f820116820180604052508101906105729190615cd3565b508b73ffffffffffffffffffffffffffffffffffffffff166323b872dd8660010160009054906101000a900473ffffffffffffffffffffffffffffffffffffffff1633866040518463ffffffff1660e01b81526004016105d493929190615c70565b6020604051808303816000875af11580156105f3573d6000803e3d6000fd5b505050506040513d601f19601f820116820180604052508101906106179190615cd3565b5083896106249190615d00565b985082886106329190615d34565b975083826106409190615d00565b9150828161064e9190615d00565b90506000820361067a5760018560060160006101000a81548160ff021916908315150217905550610a07565b8185600301819055508085600501819055506006600081548092919061069f90615b57565b9190505550600060405180610120016040528060065481526020018760010160009054906101000a900473ffffffffffffffffffffffffffffffffffffffff1673ffffffffffffffffffffffffffffffffffffffff1681526020016000600181111561070e5761070d6155c1565b5b81526020018760020160009054906101000a900473ffffffffffffffffffffffffffffffffffffffff1673ffffffffffffffffffffffffffffffffffffffff1681526020018681526020018760040160009054906101000a900473ffffffffffffffffffffffffffffffffffffffff1673ffffffffffffffffffffffffffffffffffffffff168152602001858152602001600115158152602001600015158152509050600460008760020160009054906101000a900473ffffffffffffffffffffffffffffffffffffffff1673ffffffffffffffffffffffffffffffffffffffff1673ffffffffffffffffffffffffffffffffffffffff16815260200190815260200160002060008760040160009054906101000a900473ffffffffffffffffffffffffffffffffffffffff1673ffffffffffffffffffffffffffffffffffffffff1673ffffffffffffffffffffffffffffffffffffffff1681526020019081526020016000208190806001815401808255809150506001900390600052602060002090600702016000909190919091506000820151816000015560208201518160010160006101000a81548173ffffffffffffffffffffffffffffffffffffffff021916908373ffffffffffffffffffffffffffffffffffffffff16021790555060408201518160010160146101000a81548160ff0219169083600181111561091b5761091a6155c1565b5b021790555060608201518160020160006101000a81548173ffffffffffffffffffffffffffffffffffffffff021916908373ffffffffffffffffffffffffffffffffffffffff1602179055506080820151816003015560a08201518160040160006101000a81548173ffffffffffffffffffffffffffffffffffffffff021916908373ffffffffffffffffffffffffffffffffffffffff16021790555060c0820151816005015560e08201518160060160006101000a81548160ff0219169083151502179055506101008201518160060160016101000a81548160ff0219169083151502179055505050505b60008903610a3457828a60c001818152505060018a60e00190151590811515815250505050505050610a48565b5b50505050505b8080600101915050610419565b506000831115611160576000600560008873ffffffffffffffffffffffffffffffffffffffff1673ffffffffffffffffffffffffffffffffffffffff16815260200190815260200160002060008a73ffffffffffffffffffffffffffffffffffffffff1673ffffffffffffffffffffffffffffffffffffffff168152602001908152602001600020905060005b818054905081101561115d576000828281548110610af657610af5615b9f565b5b906000526020600020906007020190508060060160009054906101000a900460ff1680610b3157508060060160019054906101000a900460ff165b80610b8b57503373ffffffffffffffffffffffffffffffffffffffff168160010160009054906101000a900473ffffffffffffffffffffffffffffffffffffffff1673ffffffffffffffffffffffffffffffffffffffff16145b15610b965750611150565b6000610ba68783600501546153fa565b905060008260050154836003015483610bbf9190615bce565b610bc99190615c3f565b905060008360030154905060008460050154905089841161114a578e73ffffffffffffffffffffffffffffffffffffffff166323b872dd338760010160009054906101000a900473ffffffffffffffffffffffffffffffffffffffff16876040518463ffffffff1660e01b8152600401610c4593929190615c70565b6020604051808303816000875af1158015610c64573d6000803e3d6000fd5b505050506040513d601f19601f82011682018060405250810190610c889190615cd3565b508c73ffffffffffffffffffffffffffffffffffffffff166323b872dd8660010160009054906101000a900473ffffffffffffffffffffffffffffffffffffffff1633866040518463ffffffff1660e01b8152600401610cea93929190615c70565b6020604051808303816000875af1158015610d09573d6000803e3d6000fd5b505050506040513d601f19601f82011682018060405250810190610d2d9190615cd3565b50838a610d3a9190615d00565b99508289610d489190615d34565b98508381610d569190615d00565b90508282610d649190615d00565b915060008103610d905760018560060160006101000a81548160ff02191690831515021790555061111c565b81856003018190555080856005018190555060066000815480929190610db590615b57565b9190505550600060405180610120016040528060065481526020018760010160009054906101000a900473ffffffffffffffffffffffffffffffffffffffff1673ffffffffffffffffffffffffffffffffffffffff168152602001600180811115610e2357610e226155c1565b5b81526020018760020160009054906101000a900473ffffffffffffffffffffffffffffffffffffffff1673ffffffffffffffffffffffffffffffffffffffff1681526020018581526020018760040160009054906101000a900473ffffffffffffffffffffffffffffffffffffffff1673ffffffffffffffffffffffffffffffffffffffff168152602001868152602001600115158152602001600015158152509050600560008760020160009054906101000a900473ffffffffffffffffffffffffffffffffffffffff1673ffffffffffffffffffffffffffffffffffffffff1673ffffffffffffffffffffffffffffffffffffffff16815260200190815260200160002060008760040160009054906101000a900473ffffffffffffffffffffffffffffffffffffffff1673ffffffffffffffffffffffffffffffffffffffff1673ffffffffffffffffffffffffffffffffffffffff1681526020019081526020016000208190806001815401808255809150506001900390600052602060002090600702016000909190919091506000820151816000015560208201518160010160006101000a81548173ffffffffffffffffffffffffffffffffffffffff021916908373ffffffffffffffffffffffffffffffffffffffff16021790555060408201518160010160146101000a81548160ff021916908360018111156110305761102f6155c1565b5b021790555060608201518160020160006101000a81548173ffffffffffffffffffffffffffffffffffffffff021916908373ffffffffffffffffffffffffffffffffffffffff1602179055506080820151816003015560a08201518160040160006101000a81548173ffffffffffffffffffffffffffffffffffffffff021916908373ffffffffffffffffffffffffffffffffffffffff16021790555060c0820151816005015560e08201518160060160006101000a81548160ff0219169083151502179055506101008201518160060160016101000a81548160ff0219169083151502179055505050505b60008a0361114957838b60c001818152505060018b60e0019015159081151581525050505050505061115d565b5b50505050505b8080600101915050610ad5565b50505b60008311156111d5576001846101000190151590811515815250503373ffffffffffffffffffffffffffffffffffffffff167f415eaf46bfbfbfce09345975c4f189dac9b310e0551cc493e93d921c4f290d26856000015160016040516111c8929190615d68565b60405180910390a261144f565b60018460e0019015159081151581525050600560008973ffffffffffffffffffffffffffffffffffffffff1673ffffffffffffffffffffffffffffffffffffffff16815260200190815260200160002060008773ffffffffffffffffffffffffffffffffffffffff1673ffffffffffffffffffffffffffffffffffffffff1681526020019081526020016000208490806001815401808255809150506001900390600052602060002090600702016000909190919091506000820151816000015560208201518160010160006101000a81548173ffffffffffffffffffffffffffffffffffffffff021916908373ffffffffffffffffffffffffffffffffffffffff16021790555060408201518160010160146101000a81548160ff02191690836001811115611308576113076155c1565b5b021790555060608201518160020160006101000a81548173ffffffffffffffffffffffffffffffffffffffff021916908373ffffffffffffffffffffffffffffffffffffffff1602179055506080820151816003015560a08201518160040160006101000a81548173ffffffffffffffffffffffffffffffffffffffff021916908373ffffffffffffffffffffffffffffffffffffffff16021790555060c0820151816005015560e08201518160060160006101000a81548160ff0219169083151502179055506101008201518160060160016101000a81548160ff02191690831515021790555050503373ffffffffffffffffffffffffffffffffffffffff1684600001517fb96fba43cb050f892b69bb7a30d6b60fc1fdad194eb15adbcea79c17f24e425360018b8b8b88604051611446959493929190615d91565b60405180910390a35b839450505050509392505050565b611465615413565b6006600081548092919061147890615b57565b9190505550600060405180610120016040528060065481526020013373ffffffffffffffffffffffffffffffffffffffff168152602001600060018111156114c3576114c26155c1565b5b81526020018773ffffffffffffffffffffffffffffffffffffffff1681526020018681526020018573ffffffffffffffffffffffffffffffffffffffff16815260200184815260200160001515815260200160001515815250905060008160800151905060008260c0015190506000600560008a73ffffffffffffffffffffffffffffffffffffffff1673ffffffffffffffffffffffffffffffffffffffff16815260200190815260200160002060008873ffffffffffffffffffffffffffffffffffffffff1673ffffffffffffffffffffffffffffffffffffffff168152602001908152602001600020905060005b8180549050811015611bdf5760008282815481106115d4576115d3615b9f565b5b906000526020600020906007020190508060060160009054906101000a900460ff168061160f57508060060160019054906101000a900460ff165b1561161a5750611bd2565b600061162a8583600501546153fa565b9050600082600501548360030154836116439190615bce565b61164d9190615c3f565b9050600083600301549050600084600501549050888311611bcc578c73ffffffffffffffffffffffffffffffffffffffff166323b872dd8b602001518760010160009054906101000a900473ffffffffffffffffffffffffffffffffffffffff16876040518463ffffffff1660e01b81526004016116cd93929190615c70565b6020604051808303816000875af11580156116ec573d6000803e3d6000fd5b505050506040513d601f19601f820116820180604052508101906117109190615cd3565b508e73ffffffffffffffffffffffffffffffffffffffff166323b872dd8660010160009054906101000a900473ffffffffffffffffffffffffffffffffffffffff168c60200151866040518463ffffffff1660e01b815260040161177693929190615c70565b6020604051808303816000875af1158015611795573d6000803e3d6000fd5b505050506040513d601f19601f820116820180604052508101906117b99190615cd3565b5082896117c69190615d00565b985083886117d49190615d00565b975082826117e29190615d00565b915083816117f09190615d00565b90506000810361181c5760018560060160006101000a81548160ff021916908315150217905550611ba8565b8185600301819055508085600501819055506006600081548092919061184190615b57565b9190505550600060405180610120016040528060065481526020018760010160009054906101000a900473ffffffffffffffffffffffffffffffffffffffff1673ffffffffffffffffffffffffffffffffffffffff1681526020016001808111156118af576118ae6155c1565b5b81526020018760020160009054906101000a900473ffffffffffffffffffffffffffffffffffffffff1673ffffffffffffffffffffffffffffffffffffffff1681526020018581526020018760040160009054906101000a900473ffffffffffffffffffffffffffffffffffffffff1673ffffffffffffffffffffffffffffffffffffffff168152602001868152602001600115158152602001600015158152509050600560008760020160009054906101000a900473ffffffffffffffffffffffffffffffffffffffff1673ffffffffffffffffffffffffffffffffffffffff1673ffffffffffffffffffffffffffffffffffffffff16815260200190815260200160002060008760040160009054906101000a900473ffffffffffffffffffffffffffffffffffffffff1673ffffffffffffffffffffffffffffffffffffffff1673ffffffffffffffffffffffffffffffffffffffff1681526020019081526020016000208190806001815401808255809150506001900390600052602060002090600702016000909190919091506000820151816000015560208201518160010160006101000a81548173ffffffffffffffffffffffffffffffffffffffff021916908373ffffffffffffffffffffffffffffffffffffffff16021790555060408201518160010160146101000a81548160ff02191690836001811115611abc57611abb6155c1565b5b021790555060608201518160020160006101000a81548173ffffffffffffffffffffffffffffffffffffffff021916908373ffffffffffffffffffffffffffffffffffffffff1602179055506080820151816003015560a08201518160040160006101000a81548173ffffffffffffffffffffffffffffffffffffffff021916908373ffffffffffffffffffffffffffffffffffffffff16021790555060c0820151816005015560e08201518160060160006101000a81548160ff0219169083151502179055506101008201518160060160016101000a81548160ff0219169083151502179055505050505b60008803611bcb5760018a60e00190151590811515815250505050505050611bdf565b5b50505050505b80806001019150506115b3565b5060008311156122f6576000600460008973ffffffffffffffffffffffffffffffffffffffff1673ffffffffffffffffffffffffffffffffffffffff16815260200190815260200160002060008b73ffffffffffffffffffffffffffffffffffffffff1673ffffffffffffffffffffffffffffffffffffffff168152602001908152602001600020905060005b81805490508110156122f3576000828281548110611c8d57611c8c615b9f565b5b906000526020600020906007020190508060060160009054906101000a900460ff1680611cc857508060060160019054906101000a900460ff165b80611d2257503373ffffffffffffffffffffffffffffffffffffffff168160010160009054906101000a900473ffffffffffffffffffffffffffffffffffffffff1673ffffffffffffffffffffffffffffffffffffffff16145b15611d2d57506122e6565b6000611d3d8683600301546153fa565b905060008260030154836005015483611d569190615bce565b611d609190615c3f565b90506000836003015490506000846005015490508983116122e0578d73ffffffffffffffffffffffffffffffffffffffff166323b872dd8c602001518760010160009054906101000a900473ffffffffffffffffffffffffffffffffffffffff16876040518463ffffffff1660e01b8152600401611de093929190615c70565b6020604051808303816000875af1158015611dff573d6000803e3d6000fd5b505050506040513d601f19601f82011682018060405250810190611e239190615cd3565b508f73ffffffffffffffffffffffffffffffffffffffff166323b872dd8660010160009054906101000a900473ffffffffffffffffffffffffffffffffffffffff168d60200151866040518463ffffffff1660e01b8152600401611e8993929190615c70565b6020604051808303816000875af1158015611ea8573d6000803e3d6000fd5b505050506040513d601f19601f82011682018060405250810190611ecc9190615cd3565b50828a611ed99190615d00565b99508389611ee79190615d00565b98508382611ef59190615d00565b91508281611f039190615d00565b905060008103611f2f5760018560060160006101000a81548160ff0219169083151502179055506122bc565b81856003018190555080856005018190555060066000815480929190611f5490615b57565b9190505550600060405180610120016040528060065481526020018760010160009054906101000a900473ffffffffffffffffffffffffffffffffffffffff1673ffffffffffffffffffffffffffffffffffffffff16815260200160006001811115611fc357611fc26155c1565b5b81526020018760020160009054906101000a900473ffffffffffffffffffffffffffffffffffffffff1673ffffffffffffffffffffffffffffffffffffffff1681526020018681526020018760040160009054906101000a900473ffffffffffffffffffffffffffffffffffffffff1673ffffffffffffffffffffffffffffffffffffffff168152602001858152602001600115158152602001600015158152509050600460008760020160009054906101000a900473ffffffffffffffffffffffffffffffffffffffff1673ffffffffffffffffffffffffffffffffffffffff1673ffffffffffffffffffffffffffffffffffffffff16815260200190815260200160002060008760040160009054906101000a900473ffffffffffffffffffffffffffffffffffffffff1673ffffffffffffffffffffffffffffffffffffffff1673ffffffffffffffffffffffffffffffffffffffff1681526020019081526020016000208190806001815401808255809150506001900390600052602060002090600702016000909190919091506000820151816000015560208201518160010160006101000a81548173ffffffffffffffffffffffffffffffffffffffff021916908373ffffffffffffffffffffffffffffffffffffffff16021790555060408201518160010160146101000a81548160ff021916908360018111156121d0576121cf6155c1565b5b021790555060608201518160020160006101000a81548173ffffffffffffffffffffffffffffffffffffffff021916908373ffffffffffffffffffffffffffffffffffffffff1602179055506080820151816003015560a08201518160040160006101000a81548173ffffffffffffffffffffffffffffffffffffffff021916908373ffffffffffffffffffffffffffffffffffffffff16021790555060c0820151816005015560e08201518160060160006101000a81548160ff0219169083151502179055506101008201518160060160016101000a81548160ff0219169083151502179055505050505b600089036122df5760018b60e001901515908115158152505050505050506122f3565b5b50505050505b8080600101915050611c6c565b50505b600082111561230e57818460c001818152505061236b565b3373ffffffffffffffffffffffffffffffffffffffff1684600001517fb96fba43cb050f892b69bb7a30d6b60fc1fdad194eb15adbcea79c17f24e425360008c8c8c8c604051612362959493929190615d91565b60405180910390a35b600460008a73ffffffffffffffffffffffffffffffffffffffff1673ffffffffffffffffffffffffffffffffffffffff16815260200190815260200160002060008873ffffffffffffffffffffffffffffffffffffffff1673ffffffffffffffffffffffffffffffffffffffff1681526020019081526020016000208490806001815401808255809150506001900390600052602060002090600702016000909190919091506000820151816000015560208201518160010160006101000a81548173ffffffffffffffffffffffffffffffffffffffff021916908373ffffffffffffffffffffffffffffffffffffffff16021790555060408201518160010160146101000a81548160ff0219169083600181111561248d5761248c6155c1565b5b021790555060608201518160020160006101000a81548173ffffffffffffffffffffffffffffffffffffffff021916908373ffffffffffffffffffffffffffffffffffffffff1602179055506080820151816003015560a08201518160040160006101000a81548173ffffffffffffffffffffffffffffffffffffffff021916908373ffffffffffffffffffffffffffffffffffffffff16021790555060c0820151816005015560e08201518160060160006101000a81548160ff0219169083151502179055506101008201518160060160016101000a81548160ff021916908315150217905550505083945050505050949350505050565b6060600560008473ffffffffffffffffffffffffffffffffffffffff1673ffffffffffffffffffffffffffffffffffffffff16815260200190815260200160002060008373ffffffffffffffffffffffffffffffffffffffff1673ffffffffffffffffffffffffffffffffffffffff168152602001908152602001600020805480602002602001604051908101604052809291908181526020016000905b828210156127e8578382906000526020600020906007020160405180610120016040529081600082015481526020016001820160009054906101000a900473ffffffffffffffffffffffffffffffffffffffff1673ffffffffffffffffffffffffffffffffffffffff1673ffffffffffffffffffffffffffffffffffffffff1681526020016001820160149054906101000a900460ff1660018111156126cd576126cc6155c1565b5b60018111156126df576126de6155c1565b5b81526020016002820160009054906101000a900473ffffffffffffffffffffffffffffffffffffffff1673ffffffffffffffffffffffffffffffffffffffff1673ffffffffffffffffffffffffffffffffffffffff168152602001600382015481526020016004820160009054906101000a900473ffffffffffffffffffffffffffffffffffffffff1673ffffffffffffffffffffffffffffffffffffffff1673ffffffffffffffffffffffffffffffffffffffff168152602001600582015481526020016006820160009054906101000a900460ff161515151581526020016006820160019054906101000a900460ff16151515158152505081526020019060010190612624565b50505050905092915050565b6003818154811061280457600080fd5b906000526020600020016000915054906101000a900473ffffffffffffffffffffffffffffffffffffffff1681565b6060600460008473ffffffffffffffffffffffffffffffffffffffff1673ffffffffffffffffffffffffffffffffffffffff16815260200190815260200160002060008373ffffffffffffffffffffffffffffffffffffffff1673ffffffffffffffffffffffffffffffffffffffff168152602001908152602001600020805480602002602001604051908101604052809291908181526020016000905b82821015612a95578382906000526020600020906007020160405180610120016040529081600082015481526020016001820160009054906101000a900473ffffffffffffffffffffffffffffffffffffffff1673ffffffffffffffffffffffffffffffffffffffff1673ffffffffffffffffffffffffffffffffffffffff1681526020016001820160149054906101000a900460ff16600181111561297a576129796155c1565b5b600181111561298c5761298b6155c1565b5b81526020016002820160009054906101000a900473ffffffffffffffffffffffffffffffffffffffff1673ffffffffffffffffffffffffffffffffffffffff1673ffffffffffffffffffffffffffffffffffffffff168152602001600382015481526020016004820160009054906101000a900473ffffffffffffffffffffffffffffffffffffffff1673ffffffffffffffffffffffffffffffffffffffff1673ffffffffffffffffffffffffffffffffffffffff168152602001600582015481526020016006820160009054906101000a900460ff161515151581526020016006820160019054906101000a900460ff161515151581525050815260200190600101906128d1565b50505050905092915050565b60056020528260005260406000206020528160005260406000208181548110612ac957600080fd5b906000526020600020906007020160009250925050508060000154908060010160009054906101000a900473ffffffffffffffffffffffffffffffffffffffff16908060010160149054906101000a900460ff16908060020160009054906101000a900473ffffffffffffffffffffffffffffffffffffffff16908060030154908060040160009054906101000a900473ffffffffffffffffffffffffffffffffffffffff16908060050154908060060160009054906101000a900460ff16908060060160019054906101000a900460ff16905089565b612ba8615413565b60066000815480929190612bbb90615b57565b9190505550600060405180610120016040528060065481526020013373ffffffffffffffffffffffffffffffffffffffff16815260200160006001811115612c0657612c056155c1565b5b81526020018673ffffffffffffffffffffffffffffffffffffffff1681526020018581526020018473ffffffffffffffffffffffffffffffffffffffff168152602001600081526020016000151581526020016000151581525090506000849050600080600560008973ffffffffffffffffffffffffffffffffffffffff1673ffffffffffffffffffffffffffffffffffffffff16815260200190815260200160002060008773ffffffffffffffffffffffffffffffffffffffff1673ffffffffffffffffffffffffffffffffffffffff168152602001908152602001600020905060005b8180549050811015613321576000828281548110612d0c57612d0b615b9f565b5b906000526020600020906007020190508060060160009054906101000a900460ff1680612d4757508060060160019054906101000a900460ff165b15612d525750613314565b6000612d628683600301546153fa565b905060008260030154836005015483612d7b9190615bce565b612d859190615c3f565b905060008360030154905060008460050154905088841161330e578b73ffffffffffffffffffffffffffffffffffffffff166323b872dd8b602001518760010160009054906101000a900473ffffffffffffffffffffffffffffffffffffffff16866040518463ffffffff1660e01b8152600401612e0593929190615c70565b6020604051808303816000875af1158015612e24573d6000803e3d6000fd5b505050506040513d601f19601f82011682018060405250810190612e489190615cd3565b508d73ffffffffffffffffffffffffffffffffffffffff166323b872dd8660010160009054906101000a900473ffffffffffffffffffffffffffffffffffffffff168c60200151876040518463ffffffff1660e01b8152600401612eae93929190615c70565b6020604051808303816000875af1158015612ecd573d6000803e3d6000fd5b505050506040513d601f19601f82011682018060405250810190612ef19190615cd3565b508389612efe9190615d00565b98508288612f0c9190615d34565b97508281612f1a9190615d00565b90508382612f289190615d00565b915060008103612f545760018560060160006101000a81548160ff0219169083151502179055506132e0565b81856003018190555080856005018190555060066000815480929190612f7990615b57565b9190505550600060405180610120016040528060065481526020018760010160009054906101000a900473ffffffffffffffffffffffffffffffffffffffff1673ffffffffffffffffffffffffffffffffffffffff168152602001600180811115612fe757612fe66155c1565b5b81526020018760020160009054906101000a900473ffffffffffffffffffffffffffffffffffffffff1673ffffffffffffffffffffffffffffffffffffffff1681526020018681526020018760040160009054906101000a900473ffffffffffffffffffffffffffffffffffffffff1673ffffffffffffffffffffffffffffffffffffffff168152602001858152602001600115158152602001600015158152509050600560008760020160009054906101000a900473ffffffffffffffffffffffffffffffffffffffff1673ffffffffffffffffffffffffffffffffffffffff1673ffffffffffffffffffffffffffffffffffffffff16815260200190815260200160002060008760040160009054906101000a900473ffffffffffffffffffffffffffffffffffffffff1673ffffffffffffffffffffffffffffffffffffffff1673ffffffffffffffffffffffffffffffffffffffff1681526020019081526020016000208190806001815401808255809150506001900390600052602060002090600702016000909190919091506000820151816000015560208201518160010160006101000a81548173ffffffffffffffffffffffffffffffffffffffff021916908373ffffffffffffffffffffffffffffffffffffffff16021790555060408201518160010160146101000a81548160ff021916908360018111156131f4576131f36155c1565b5b021790555060608201518160020160006101000a81548173ffffffffffffffffffffffffffffffffffffffff021916908373ffffffffffffffffffffffffffffffffffffffff1602179055506080820151816003015560a08201518160040160006101000a81548173ffffffffffffffffffffffffffffffffffffffff021916908373ffffffffffffffffffffffffffffffffffffffff16021790555060c0820151816005015560e08201518160060160006101000a81548160ff0219169083151502179055506101008201518160060160016101000a81548160ff0219169083151502179055505050505b6000890361330d57828a60c001818152505060018a60e00190151590811515815250505050505050613321565b5b50505050505b8080600101915050612ceb565b506000831115613a42576000600460008873ffffffffffffffffffffffffffffffffffffffff1673ffffffffffffffffffffffffffffffffffffffff16815260200190815260200160002060008a73ffffffffffffffffffffffffffffffffffffffff1673ffffffffffffffffffffffffffffffffffffffff168152602001908152602001600020905060005b8180549050811015613a3f5760008282815481106133cf576133ce615b9f565b5b906000526020600020906007020190508060060160009054906101000a900460ff168061340a57508060060160019054906101000a900460ff165b8061346457503373ffffffffffffffffffffffffffffffffffffffff168160010160009054906101000a900473ffffffffffffffffffffffffffffffffffffffff1673ffffffffffffffffffffffffffffffffffffffff16145b1561346f5750613a32565b600061347f8783600501546153fa565b9050600082600501548360030154836134989190615bce565b6134a29190615c3f565b9050600083600301549050600084600501549050898411613a2c578c73ffffffffffffffffffffffffffffffffffffffff166323b872dd8c602001518760010160009054906101000a900473ffffffffffffffffffffffffffffffffffffffff16866040518463ffffffff1660e01b815260040161352293929190615c70565b6020604051808303816000875af1158015613541573d6000803e3d6000fd5b505050506040513d601f19601f820116820180604052508101906135659190615cd3565b508e73ffffffffffffffffffffffffffffffffffffffff166323b872dd8660010160009054906101000a900473ffffffffffffffffffffffffffffffffffffffff168d60200151876040518463ffffffff1660e01b81526004016135cb93929190615c70565b6020604051808303816000875af11580156135ea573d6000803e3d6000fd5b505050506040513d601f19601f8201168201806040525081019061360e9190615cd3565b50838a61361b9190615d00565b995082896136299190615d34565b985083816136379190615d00565b905082826136459190615d00565b9150600081036136715760018560060160006101000a81548160ff0219169083151502179055506139fe565b8185600301819055508085600501819055506006600081548092919061369690615b57565b9190505550600060405180610120016040528060065481526020018760010160009054906101000a900473ffffffffffffffffffffffffffffffffffffffff1673ffffffffffffffffffffffffffffffffffffffff16815260200160006001811115613705576137046155c1565b5b81526020018760020160009054906101000a900473ffffffffffffffffffffffffffffffffffffffff1673ffffffffffffffffffffffffffffffffffffffff1681526020018581526020018760040160009054906101000a900473ffffffffffffffffffffffffffffffffffffffff1673ffffffffffffffffffffffffffffffffffffffff168152602001868152602001600115158152602001600015158152509050600460008760020160009054906101000a900473ffffffffffffffffffffffffffffffffffffffff1673ffffffffffffffffffffffffffffffffffffffff1673ffffffffffffffffffffffffffffffffffffffff16815260200190815260200160002060008760040160009054906101000a900473ffffffffffffffffffffffffffffffffffffffff1673ffffffffffffffffffffffffffffffffffffffff1673ffffffffffffffffffffffffffffffffffffffff1681526020019081526020016000208190806001815401808255809150506001900390600052602060002090600702016000909190919091506000820151816000015560208201518160010160006101000a81548173ffffffffffffffffffffffffffffffffffffffff021916908373ffffffffffffffffffffffffffffffffffffffff16021790555060408201518160010160146101000a81548160ff02191690836001811115613912576139116155c1565b5b021790555060608201518160020160006101000a81548173ffffffffffffffffffffffffffffffffffffffff021916908373ffffffffffffffffffffffffffffffffffffffff1602179055506080820151816003015560a08201518160040160006101000a81548173ffffffffffffffffffffffffffffffffffffffff021916908373ffffffffffffffffffffffffffffffffffffffff16021790555060c0820151816005015560e08201518160060160006101000a81548160ff0219169083151502179055506101008201518160060160016101000a81548160ff0219169083151502179055505050505b60008a03613a2b57838b60c001818152505060018b60e00190151590811515815250505050505050613a3f565b5b50505050505b80806001019150506133ae565b50505b6000831115613ab7576001846101000190151590811515815250503373ffffffffffffffffffffffffffffffffffffffff167f415eaf46bfbfbfce09345975c4f189dac9b310e0551cc493e93d921c4f290d2685600001516000604051613aaa929190615d68565b60405180910390a2613d31565b60018460e0019015159081151581525050600460008973ffffffffffffffffffffffffffffffffffffffff1673ffffffffffffffffffffffffffffffffffffffff16815260200190815260200160002060008773ffffffffffffffffffffffffffffffffffffffff1673ffffffffffffffffffffffffffffffffffffffff1681526020019081526020016000208490806001815401808255809150506001900390600052602060002090600702016000909190919091506000820151816000015560208201518160010160006101000a81548173ffffffffffffffffffffffffffffffffffffffff021916908373ffffffffffffffffffffffffffffffffffffffff16021790555060408201518160010160146101000a81548160ff02191690836001811115613bea57613be96155c1565b5b021790555060608201518160020160006101000a81548173ffffffffffffffffffffffffffffffffffffffff021916908373ffffffffffffffffffffffffffffffffffffffff1602179055506080820151816003015560a08201518160040160006101000a81548173ffffffffffffffffffffffffffffffffffffffff021916908373ffffffffffffffffffffffffffffffffffffffff16021790555060c0820151816005015560e08201518160060160006101000a81548160ff0219169083151502179055506101008201518160060160016101000a81548160ff02191690831515021790555050503373ffffffffffffffffffffffffffffffffffffffff1684600001517fb96fba43cb050f892b69bb7a30d6b60fc1fdad194eb15adbcea79c17f24e425360008b8b8b88604051613d28959493929190615d91565b60405180910390a35b839450505050509392505050565b613d47615413565b60066000815480929190613d5a90615b57565b9190505550600060405180610120016040528060065481526020013373ffffffffffffffffffffffffffffffffffffffff168152602001600180811115613da457613da36155c1565b5b81526020018773ffffffffffffffffffffffffffffffffffffffff1681526020018681526020018573ffffffffffffffffffffffffffffffffffffffff16815260200184815260200160001515815260200160001515815250905060008160800151905060008260c0015190506000600460008a73ffffffffffffffffffffffffffffffffffffffff1673ffffffffffffffffffffffffffffffffffffffff16815260200190815260200160002060008873ffffffffffffffffffffffffffffffffffffffff1673ffffffffffffffffffffffffffffffffffffffff168152602001908152602001600020905060005b81805490508110156144c1576000828281548110613eb557613eb4615b9f565b5b906000526020600020906007020190508060060160009054906101000a900460ff1680613ef057508060060160019054906101000a900460ff165b15613efb57506144b4565b6000613f0b8583600501546153fa565b905060008260050154836003015483613f249190615bce565b613f2e9190615c3f565b90506000836003015490506000846005015490508883116144ae578e73ffffffffffffffffffffffffffffffffffffffff166323b872dd8b602001518760010160009054906101000a900473ffffffffffffffffffffffffffffffffffffffff16866040518463ffffffff1660e01b8152600401613fae93929190615c70565b6020604051808303816000875af1158015613fcd573d6000803e3d6000fd5b505050506040513d601f19601f82011682018060405250810190613ff19190615cd3565b508c73ffffffffffffffffffffffffffffffffffffffff166323b872dd8660010160009054906101000a900473ffffffffffffffffffffffffffffffffffffffff168c60200151876040518463ffffffff1660e01b815260040161405793929190615c70565b6020604051808303816000875af1158015614076573d6000803e3d6000fd5b505050506040513d601f19601f8201168201806040525081019061409a9190615cd3565b5082896140a79190615d00565b985083886140b59190615d00565b975082826140c39190615d00565b915083816140d19190615d00565b9050600081036140fd5760018560060160006101000a81548160ff02191690831515021790555061448a565b8185600301819055508085600501819055506006600081548092919061412290615b57565b9190505550600060405180610120016040528060065481526020018760010160009054906101000a900473ffffffffffffffffffffffffffffffffffffffff1673ffffffffffffffffffffffffffffffffffffffff16815260200160006001811115614191576141906155c1565b5b81526020018760020160009054906101000a900473ffffffffffffffffffffffffffffffffffffffff1673ffffffffffffffffffffffffffffffffffffffff1681526020018581526020018760040160009054906101000a900473ffffffffffffffffffffffffffffffffffffffff1673ffffffffffffffffffffffffffffffffffffffff168152602001868152602001600115158152602001600015158152509050600460008760020160009054906101000a900473ffffffffffffffffffffffffffffffffffffffff1673ffffffffffffffffffffffffffffffffffffffff1673ffffffffffffffffffffffffffffffffffffffff16815260200190815260200160002060008760040160009054906101000a900473ffffffffffffffffffffffffffffffffffffffff1673ffffffffffffffffffffffffffffffffffffffff1673ffffffffffffffffffffffffffffffffffffffff1681526020019081526020016000208190806001815401808255809150506001900390600052602060002090600702016000909190919091506000820151816000015560208201518160010160006101000a81548173ffffffffffffffffffffffffffffffffffffffff021916908373ffffffffffffffffffffffffffffffffffffffff16021790555060408201518160010160146101000a81548160ff0219169083600181111561439e5761439d6155c1565b5b021790555060608201518160020160006101000a81548173ffffffffffffffffffffffffffffffffffffffff021916908373ffffffffffffffffffffffffffffffffffffffff1602179055506080820151816003015560a08201518160040160006101000a81548173ffffffffffffffffffffffffffffffffffffffff021916908373ffffffffffffffffffffffffffffffffffffffff16021790555060c0820151816005015560e08201518160060160006101000a81548160ff0219169083151502179055506101008201518160060160016101000a81548160ff0219169083151502179055505050505b600088036144ad5760018a60e001901515908115158152505050505050506144c1565b5b50505050505b8080600101915050613e94565b506000821115614bd7576000600560008973ffffffffffffffffffffffffffffffffffffffff1673ffffffffffffffffffffffffffffffffffffffff16815260200190815260200160002060008b73ffffffffffffffffffffffffffffffffffffffff1673ffffffffffffffffffffffffffffffffffffffff168152602001908152602001600020905060005b8180549050811015614bd457600082828154811061456f5761456e615b9f565b5b906000526020600020906007020190508060060160009054906101000a900460ff16806145aa57508060060160019054906101000a900460ff165b8061460457503373ffffffffffffffffffffffffffffffffffffffff168160010160009054906101000a900473ffffffffffffffffffffffffffffffffffffffff1673ffffffffffffffffffffffffffffffffffffffff16145b1561460f5750614bc7565b600061461f8683600301546153fa565b9050600082600301548360050154836146389190615bce565b6146429190615c3f565b9050600083600301549050600084600501549050898311614bc1578f73ffffffffffffffffffffffffffffffffffffffff166323b872dd8c602001518760010160009054906101000a900473ffffffffffffffffffffffffffffffffffffffff16866040518463ffffffff1660e01b81526004016146c293929190615c70565b6020604051808303816000875af11580156146e1573d6000803e3d6000fd5b505050506040513d601f19601f820116820180604052508101906147059190615cd3565b508d73ffffffffffffffffffffffffffffffffffffffff166323b872dd8660010160009054906101000a900473ffffffffffffffffffffffffffffffffffffffff168d60200151876040518463ffffffff1660e01b815260040161476b93929190615c70565b6020604051808303816000875af115801561478a573d6000803e3d6000fd5b505050506040513d601f19601f820116820180604052508101906147ae9190615cd3565b50828a6147bb9190615d00565b995083896147c99190615d00565b985083826147d79190615d00565b915082816147e59190615d00565b9050600081036148115760018560060160006101000a81548160ff021916908315150217905550614b9d565b8185600301819055508085600501819055506006600081548092919061483690615b57565b9190505550600060405180610120016040528060065481526020018760010160009054906101000a900473ffffffffffffffffffffffffffffffffffffffff1673ffffffffffffffffffffffffffffffffffffffff1681526020016001808111156148a4576148a36155c1565b5b81526020018760020160009054906101000a900473ffffffffffffffffffffffffffffffffffffffff1673ffffffffffffffffffffffffffffffffffffffff1681526020018681526020018760040160009054906101000a900473ffffffffffffffffffffffffffffffffffffffff1673ffffffffffffffffffffffffffffffffffffffff168152602001858152602001600115158152602001600015158152509050600560008760020160009054906101000a900473ffffffffffffffffffffffffffffffffffffffff1673ffffffffffffffffffffffffffffffffffffffff1673ffffffffffffffffffffffffffffffffffffffff16815260200190815260200160002060008760040160009054906101000a900473ffffffffffffffffffffffffffffffffffffffff1673ffffffffffffffffffffffffffffffffffffffff1673ffffffffffffffffffffffffffffffffffffffff1681526020019081526020016000208190806001815401808255809150506001900390600052602060002090600702016000909190919091506000820151816000015560208201518160010160006101000a81548173ffffffffffffffffffffffffffffffffffffffff021916908373ffffffffffffffffffffffffffffffffffffffff16021790555060408201518160010160146101000a81548160ff02191690836001811115614ab157614ab06155c1565b5b021790555060608201518160020160006101000a81548173ffffffffffffffffffffffffffffffffffffffff021916908373ffffffffffffffffffffffffffffffffffffffff1602179055506080820151816003015560a08201518160040160006101000a81548173ffffffffffffffffffffffffffffffffffffffff021916908373ffffffffffffffffffffffffffffffffffffffff16021790555060c0820151816005015560e08201518160060160006101000a81548160ff0219169083151502179055506101008201518160060160016101000a81548160ff0219169083151502179055505050505b60008903614bc05760018b60e00190151590811515815250505050505050614bd4565b5b50505050505b808060010191505061454e565b50505b6000821115614c4b57818460c00181815250503373ffffffffffffffffffffffffffffffffffffffff1684600001517f7933cf0c86f63b2785e2af2c09aed8558b4ab002b02f247733472d80973d642460018c8c8c8c604051614c3e959493929190615d91565b60405180910390a3614ca8565b3373ffffffffffffffffffffffffffffffffffffffff1684600001517fb96fba43cb050f892b69bb7a30d6b60fc1fdad194eb15adbcea79c17f24e425360018c8c8c8c604051614c9f959493929190615d91565b60405180910390a35b600560008a73ffffffffffffffffffffffffffffffffffffffff1673ffffffffffffffffffffffffffffffffffffffff16815260200190815260200160002060008873ffffffffffffffffffffffffffffffffffffffff1673ffffffffffffffffffffffffffffffffffffffff1681526020019081526020016000208490806001815401808255809150506001900390600052602060002090600702016000909190919091506000820151816000015560208201518160010160006101000a81548173ffffffffffffffffffffffffffffffffffffffff021916908373ffffffffffffffffffffffffffffffffffffffff16021790555060408201518160010160146101000a81548160ff02191690836001811115614dca57614dc96155c1565b5b021790555060608201518160020160006101000a81548173ffffffffffffffffffffffffffffffffffffffff021916908373ffffffffffffffffffffffffffffffffffffffff1602179055506080820151816003015560a08201518160040160006101000a81548173ffffffffffffffffffffffffffffffffffffffff021916908373ffffffffffffffffffffffffffffffffffffffff16021790555060c0820151816005015560e08201518160060160006101000a81548160ff0219169083151502179055506101008201518160060160016101000a81548160ff021916908315150217905550505083945050505050949350505050565b6000600560008473ffffffffffffffffffffffffffffffffffffffff1673ffffffffffffffffffffffffffffffffffffffff16815260200190815260200160002060008373ffffffffffffffffffffffffffffffffffffffff1673ffffffffffffffffffffffffffffffffffffffff168152602001908152602001600020905060005b818054905081101561509b5784828281548110614f6657614f65615b9f565b5b906000526020600020906007020160000154148015614ff457503373ffffffffffffffffffffffffffffffffffffffff16828281548110614faa57614fa9615b9f565b5b906000526020600020906007020160010160009054906101000a900473ffffffffffffffffffffffffffffffffffffffff1673ffffffffffffffffffffffffffffffffffffffff16145b1561508e57600182828154811061500e5761500d615b9f565b5b906000526020600020906007020160060160016101000a81548160ff0219169083151502179055503373ffffffffffffffffffffffffffffffffffffffff167f415eaf46bfbfbfce09345975c4f189dac9b310e0551cc493e93d921c4f290d2686600160405161507f929190615d68565b60405180910390a250506150d7565b8080600101915050614f46565b506040517f08c379a00000000000000000000000000000000000000000000000000000000081526004016150ce90615e67565b60405180910390fd5b505050565b60065481565b6004602052826000526040600020602052816000526040600020818154811061510a57600080fd5b906000526020600020906007020160009250925050508060000154908060010160009054906101000a900473ffffffffffffffffffffffffffffffffffffffff16908060010160149054906101000a900460ff16908060020160009054906101000a900473ffffffffffffffffffffffffffffffffffffffff16908060030154908060040160009054906101000a900473ffffffffffffffffffffffffffffffffffffffff16908060050154908060060160009054906101000a900460ff16908060060160019054906101000a900460ff16905089565b6000600460008473ffffffffffffffffffffffffffffffffffffffff1673ffffffffffffffffffffffffffffffffffffffff16815260200190815260200160002060008373ffffffffffffffffffffffffffffffffffffffff1673ffffffffffffffffffffffffffffffffffffffff168152602001908152602001600020905060005b81805490508110156153b9578482828154811061528457615283615b9f565b5b90600052602060002090600702016000015414801561531257503373ffffffffffffffffffffffffffffffffffffffff168282815481106152c8576152c7615b9f565b5b906000526020600020906007020160010160009054906101000a900473ffffffffffffffffffffffffffffffffffffffff1673ffffffffffffffffffffffffffffffffffffffff16145b156153ac57600182828154811061532c5761532b615b9f565b5b906000526020600020906007020160060160016101000a81548160ff0219169083151502179055503373ffffffffffffffffffffffffffffffffffffffff167f415eaf46bfbfbfce09345975c4f189dac9b310e0551cc493e93d921c4f290d2686600060405161539d929190615d68565b60405180910390a250506153f5565b8080600101915050615264565b506040517f08c379a00000000000000000000000000000000000000000000000000000000081526004016153ec90615e67565b60405180910390fd5b505050565b6000818310615409578161540b565b825b905092915050565b60405180610120016040528060008152602001600073ffffffffffffffffffffffffffffffffffffffff16815260200160006001811115615457576154566155c1565b5b8152602001600073ffffffffffffffffffffffffffffffffffffffff16815260200160008152602001600073ffffffffffffffffffffffffffffffffffffffff168152602001600081526020016000151581526020016000151581525090565b600080fd5b600073ffffffffffffffffffffffffffffffffffffffff82169050919050565b60006154e7826154bc565b9050919050565b6154f7816154dc565b811461550257600080fd5b50565b600081359050615514816154ee565b92915050565b6000819050919050565b61552d8161551a565b811461553857600080fd5b50565b60008135905061554a81615524565b92915050565b600080600060608486031215615569576155686154b7565b5b600061557786828701615505565b93505060206155888682870161553b565b925050604061559986828701615505565b9150509250925092565b6155ac8161551a565b82525050565b6155bb816154dc565b82525050565b7f4e487b7100000000000000000000000000000000000000000000000000000000600052602160045260246000fd5b60028110615601576156006155c1565b5b50565b6000819050615612826155f0565b919050565b600061562282615604565b9050919050565b61563281615617565b82525050565b60008115159050919050565b61564d81615638565b82525050565b6101208201600082015161566a60008501826155a3565b50602082015161567d60208501826155b2565b5060408201516156906040850182615629565b5060608201516156a360608501826155b2565b5060808201516156b660808501826155a3565b5060a08201516156c960a08501826155b2565b5060c08201516156dc60c08501826155a3565b5060e08201516156ef60e0850182615644565b50610100820151615704610100850182615644565b50505050565b6000610120820190506157206000830184615653565b92915050565b600080600080608085870312156157405761573f6154b7565b5b600061574e87828801615505565b945050602061575f8782880161553b565b935050604061577087828801615505565b92505060606157818782880161553b565b91505092959194509250565b600080604083850312156157a4576157a36154b7565b5b60006157b285828601615505565b92505060206157c385828601615505565b9150509250929050565b600081519050919050565b600082825260208201905092915050565b6000819050602082019050919050565b6101208201600082015161581060008501826155a3565b50602082015161582360208501826155b2565b5060408201516158366040850182615629565b50606082015161584960608501826155b2565b50608082015161585c60808501826155a3565b5060a082015161586f60a08501826155b2565b5060c082015161588260c08501826155a3565b5060e082015161589560e0850182615644565b506101008201516158aa610100850182615644565b50505050565b60006158bc83836157f9565b6101208301905092915050565b6000602082019050919050565b60006158e1826157cd565b6158eb81856157d8565b93506158f6836157e9565b8060005b8381101561592757815161590e88826158b0565b9750615919836158c9565b9250506001810190506158fa565b5085935050505092915050565b6000602082019050818103600083015261594e81846158d6565b905092915050565b60006020828403121561596c5761596b6154b7565b5b600061597a8482850161553b565b91505092915050565b61598c816154dc565b82525050565b60006020820190506159a76000830184615983565b92915050565b6000806000606084860312156159c6576159c56154b7565b5b60006159d486828701615505565b93505060206159e586828701615505565b92505060406159f68682870161553b565b9150509250925092565b615a098161551a565b82525050565b615a1881615617565b82525050565b615a2781615638565b82525050565b600061012082019050615a43600083018c615a00565b615a50602083018b615983565b615a5d604083018a615a0f565b615a6a6060830189615983565b615a776080830188615a00565b615a8460a0830187615983565b615a9160c0830186615a00565b615a9e60e0830185615a1e565b615aac610100830184615a1e565b9a9950505050505050505050565b600080600060608486031215615ad357615ad26154b7565b5b6000615ae18682870161553b565b9350506020615af286828701615505565b9250506040615b0386828701615505565b9150509250925092565b6000602082019050615b226000830184615a00565b92915050565b7f4e487b7100000000000000000000000000000000000000000000000000000000600052601160045260246000fd5b6000615b628261551a565b91507fffffffffffffffffffffffffffffffffffffffffffffffffffffffffffffffff8203615b9457615b93615b28565b5b600182019050919050565b7f4e487b7100000000000000000000000000000000000000000000000000000000600052603260045260246000fd5b6000615bd98261551a565b9150615be48361551a565b9250828202615bf28161551a565b91508282048414831517615c0957615c08615b28565b5b5092915050565b7f4e487b7100000000000000000000000000000000000000000000000000000000600052601260045260246000fd5b6000615c4a8261551a565b9150615c558361551a565b925082615c6557615c64615c10565b5b828204905092915050565b6000606082019050615c856000830186615983565b615c926020830185615983565b615c9f6040830184615a00565b949350505050565b615cb081615638565b8114615cbb57600080fd5b50565b600081519050615ccd81615ca7565b92915050565b600060208284031215615ce957615ce86154b7565b5b6000615cf784828501615cbe565b91505092915050565b6000615d0b8261551a565b9150615d168361551a565b9250828203905081811115615d2e57615d2d615b28565b5b92915050565b6000615d3f8261551a565b9150615d4a8361551a565b9250828201905080821115615d6257615d61615b28565b5b92915050565b6000604082019050615d7d6000830185615a00565b615d8a6020830184615a0f565b9392505050565b600060a082019050615da66000830188615a0f565b615db36020830187615983565b615dc06040830186615a00565b615dcd6060830185615983565b615dda6080830184615a00565b9695505050505050565b600082825260208201905092915050565b7f4f72646572206e6f7420666f756e64206f72206e6f74206f776e65642062792060008201527f63616c6c65720000000000000000000000000000000000000000000000000000602082015250565b6000615e51602683615de4565b9150615e5c82615df5565b604082019050919050565b60006020820190508181036000830152615e8081615e44565b905091905056fea2646970667358221220fb447653fcc52da6d55651bc8c3dac2bf3c15c60ff6aacd6a1a25d0c7f8b140664736f6c634300081b0033",
  "linkReferences": {},
  "deployedLinkReferences": {}
}